:1000000000308A0019280000223084008313000881
:10001000031918280530F800F701F70B0D28F80B25
:100020000C282E30F700F70B13281628800B0A280F
:100030000034840183131F3083058316031787114F
:100040000C3003139900E2309800D03083129800EE
:10005000831603170908C039890003131F129F1262
:10006000003003178800831287018801890100305E
:100070008316031386008500870088000910891005
:100080000911831286010230A100FA30A200042077
:10009000A10B4528113086000230A100FA30A200E1
:1000A0000420A10B4E28223086000230A100FA3035
:1000B000A2000420A10B5728333086000230A10093
:1000C000FA30A2000420A10B6028443086000230E0
:1000D000A100FA30A2000420A10B69285530860047
:1000E0000230A100FA30A2000420A10B7228663071
:1000F00086000230A100FA30A2000420A10B7B2868
:10010000773086000230A100FA30A2000420A10B53
:100110008428883086000230A100FA30A200042032
:10012000A10B8D28993086000230A100FA30A20080
:100130000420A10B9628AA3086000230A100FA30D4
:10014000A2000420A10B9F28BB3086000230A10032
:10015000FA30A2000420A10BA828DD30860002306E
:10016000A100FA30A2000420A10BB128FF308600C4
:100170000230A100FA30A2000420A10BBA284228C4
:0201800063001A
:04400E00F22FFF3F4F
:00000001FF
;PIC16F887
